:020000040800F2
:10000000000001205903000861030008690300088B
:10001000F5030008FD030008550400080000000077
:10002000000000000000000000000000AD04000817
:10003000B504000800000000BD040008A51B00086E
:10004000DD040008DD040008DD040008DD0400080C
:10005000DD040008DD040008DD040008DD040008FC
:10006000DD040008DD040008DD040008DD040008EC
:10007000DD040008DD040008DD040008DD040008DC
:10008000DD040008DD040008DD04000800000000B5
:10009000000000000000000000000000DD04000877
:1000A000DD040008DD040008DD040008DD040008AC
:1000B000DD040008DD040008DD040008DD0400089C
:1000C000DD040008DD040008DD040008DD0400088C
:1000D000DD040008D5210008752300080000000099
:1000E000DD040008DD040008DD0400080000000055
:1000F000000000000000000000000000DD04000817
:1001000000000000DD040008DD040008DD04000834
:1001100000000000000000000000000000000000DF
:10012000DD040008DD040008DD040008DD0400082B
:10013000DD040008000000000000000000000000D6
:10014000000000000000000000000000DD040008C6
:10015000DD040008DD040008DD04000815250008A2
:10016000DD040008DD0400080000000000000000BD
:10017000000000000000000000000000000000007F
:1001800000000000DD040008000000000000000086
:10019000DD04000880B596B000AF00F047FB5D4B72
:1001A0005D4A1A605D4B5C4A1A605D4B7B6523E0DB
:1001B0007B6D1A1D7A651B68FB647B6D1A1D7A6561
:1001C0001B68BB647B6D1A1D7A651B687B64FB6CC6
:1001D0003B63BB6CFB627B6CBB62FB6A7B6207E0D0
:1001E0007B6A1A1D7A623A6B111D396312681A60B4
:1001F000BA6A7B6A9A42F3D87B6D4A4A9342D7D354
:10020000444B1B68484A934204D1444B1B68474AFD
:10021000934200D0FEE7464B3F4A1A60454B3E4AA8
:100220001A60454B3B6519E03B6D1A1D3A651B682A
:10023000FB633B6D1A1D3A651B68BB63FB6B3B643C
:10024000BB6B3B623B6CFB6104E0FB691A1DFA610E
:1002500000221A603A6AFB699A42F6D83B6D374A27
:100260009342E1D3324B1B68002B03D1314B1B6807
:10027000002B00D0FEE700F0E7FA3A1D07F1080373
:100280001146184600F07EF92D4A2E4BD31A9B10CA
:100290003B610023FB6007E02A4AFB6852F82330E9
:1002A0009847FB680133FB603A69FB689A42F3DCCC
:1002B000254A264BD31A9B103B610023FB6007E0C5
:1002C000224AFB6852F823309847FB680133FB60F1
:1002D0003A69FB689A42F3DCBB687A6811461846B3
:1002E00002F0AEFF78631A4A1A4BD31A9B10BB6117
:1002F000BB697B6108E07B69013B164A52F82330F9
:1003000098477B69013B7B617B69002BF3DC786B51
:1003100000F0FEF800000020BABADECA8C0000200F
:10032000E4040008FC04000878563412325476982D
:1003300090000020A8020020FC0400080C05000822
:100340000C0500080C0500080C0500080C05000849
:100350000C0500080C05000880B500AFFFF71AFF78
:1003600080B400AF00BEFEE71EF0040F0CBFEFF339
:100370000880EFF309807146554A104700BF00BF5F
:1003800080B588B002AF78603960184B5B6B7B61D9
:10039000164B9B6B3B61154B9B6AFB60134B1B6BB6
:1003A00003F00203002B10D0104BDB6A002B0CDA99
:1003B0004BF6AB61786800F011FA0346002B04D0CD
:1003C0000A4B4FF00042DA620CE0094800F04EF9A7
:1003D0003B6800933B697A69F968786800F068F9CE
:1003E00000BEFEE71837BD4680BD00BF00ED00E04F
:1003F000744A000880B400AF00BEFEE71EF0040F90
:100400000CBFEFF30880EFF309807146314A1047C3
:1004100000BF00BF80B588B002AF786039600B4B79
:100420005B6B7B61094B9B6B3B61084B9B6AFB6081
:10043000074800F01BF93B6800933B697A69F9684B
:10044000786800F035F900BEFEE700BF00ED00E07F
:10045000844A00081EF0040F0CBFEFF30880EFF38E
:10046000098071461C4A104700BF00BF80B588B0A4
:1004700002AF786039600B4B5B6B7B61094B9B6B08
:100480003B61084B9B6AFB60074800F0EFF83B6854
:1004900000933B697A69F968786800F009F900BE51
:1004A000FEE700BF00ED00E0904A000880B400AF16
:1004B00000BEFEE780B400AF00BEFEE780B400AF30
:1004C00000BEFEE780B400AF00BFBD4680BC7047F1
:1004D00081030008150400086D04000880B400AF13
:0404E00000BEFEE775
:1004E4000C4C000800000020900000200C4C000878
:1004F400000000100000001090000020AC0200205A
:080504000000001000000010CF
:1005100080B483B000AF7860FEE700BF80B584B0E0
:1005200000AF7860144B1B68002B02D1124B134AAA
:100530001A60114B1B68FB607B68033323F00303D5
:100540007B600D4B1A687B6813440D4A934207D9B0
:1005500003F072FD02460C2313604FF0FF3306E0F8
:10056000054B1A687B681344034A1360FB681846FE
:100570001037BD4680BD00BF94000020AC020020B3
:1005800000FC002080B483B000AF786039607B68E5
:1005900001221A603B68034A1A6000BF0C37BD464F
:1005A00080BC70470400002080B582B000AF786046
:1005B00039603968786800F005F80346184608374E
:1005C000BD4680BDB0B590B000AF786039607A6844
:1005D0003B68134493F90030002B0BD10423FB62DA
:1005E0007B68BB62FC6ABD6A20462946ABBE0446F6
:1005F0007C6236E03B68FB6330E0FB6B102B28BF6E
:1006000010233B630023BB630EE07B6893F900106B
:1006100007F10C02BB6B13440A461A70BB6B013323
:10062000BB637B6801337B60BA6B3B6B9A42ECD354
:1006300007F10C02BB6B134400221A7004237B6386
:1006400007F10C033B627C6B3D6A20462946ABBE3A
:100650000446FC61FA6B3B6BD31AFB63FB6B002B0C
:10066000CBD13B6818464037BD46B0BD0FB480B50E
:1006700082B000AF07F114033B603B683A69802108
:100680000A4803F00BFD78607B68002B05DD7B6872
:1006900019460648FFF788FF78607B6818460837D8
:1006A000BD46BDE8804004B0704700BF9C000020FC
:1006B00080B584B000AFF860B9607A603B603448C0
:1006C000FFF7D4FFFB681B6819463248FFF7CEFFDF
:1006D000FB685B6819463048FFF7C8FFFB689B68FA
:1006E00019462E48FFF7C2FFFB68DB6819462C4805
:1006F000FFF7BCFFFB681B6919462A48FFF7B6FFE6
:10070000FB685B6919462848FFF7B0FFFB689B69E7
:1007100019462648FFF7AAFFFB68DB6919462448FB
:10072000FFF7A4FF2348FFF7A1FFB9682248FFF7AE
:100730009DFF224BDB6A19462148FFF797FF1F4BAD
:100740001B6B19461F48FFF791FF1C4BDB6B1946CB
:100750001D48FFF78BFFBB6803F08003002B03D01D
:1007600079681A48FFF782FFBB6803F40043002B47
:1007700003D039681648FFF779FF1648FFF776FF70
:10078000B9691548FFF772FF00BF1037BD4680BD3D
:100790005849000868490008784900088849000855
:1007A00098490008A8490008B8490008C849000845
:1007B000D8490008E8490008F449000800ED00E0C5
:1007C000044A0008144A0008244A0008344A000871
:1007D000444A0008544A00085C4A000880B485B0C6
:1007E00000AF78600B467B807B689B69FB60FB6891
:1007F0001B887A889A4213D17B681B68BB60BB68F0
:10080000032B03D0042B03D000230AE000BF00E039
:1008100000BF7B689B699A1C7B689A61012300E09A
:10082000002318461437BD4680BC704780B500AF22
:1008300000F010F8024B034A9A6000BF80BD00BF71
:1008400000ED00E00000000880B500AF00F00EF8F9
:1008500000BF80BD80B400AF034B4FF000629A60D0
:1008600000BFBD4680BC704700ED00E080B487B09B
:1008700000AF00233B6100237B610223FB60002368
:10088000BB6002237B60324B9B6803F00C033B612F
:100890003B69042B07D0082B09D0002B3FD12D4BEF
:1008A0002D4A1A603FE02B4B2C4A1A603BE0284B44
:1008B0005B6803F480039B0DBB60254B5B6803F012
:1008C0003F037B60BB68002B0DD0244A7B68B2FBE2
:1008D000F3F21F4B596847F6C0730B409B0903FBAB
:1008E00002F37B610CE01C4A7B68B2FBF3F2184B0D
:1008F000596847F6C0730B409B0903FB02F37B6109
:10090000134B5B6803F440331B0C01335B00FB604B
:100910007A69FB68B2FBF3F30E4A136003E00D4BF8
:100920000D4A1A6000BF0A4B9B6803F0F0031B09D5
:100930000B4AD35C3B61074B1A683B6922FA03F30D
:10094000044A136000BF1C37BD4680BC704700BF1F
:10095000003802400C0000200024F40040787D01A3
:10096000A04A000880B582B000AF0023FB7101F0FF
:10097000EBF8164801F0FEF8012001F021F9002300
:10098000FB711BE0F979FA7913465B0013449B0075
:100990000F4A13440F4A42F83130F979FA790C487A
:1009A00013465B0013449B00034408331A6809484C
:1009B000CB0003445A60FB790133FB71FB79042BB4
:1009C000E0D900BF0837BD4680BD00BF750A0008EA
:1009D000B04A00087C02002080B500AF01F09EF80C
:1009E000044B1B78012BFBD100F006F8014B0022D1
:1009F0001A70F5E71C01002080B582B000AF00231B
:100A0000FB710023FB712BE0FB79194A52F833305C
:100A10001B68002B16D0FB79154ADB0013445B687A
:100A2000002B0FD1FB79124A52F833301B689847DC
:100A3000FB79FA790E4951F8322052680C49DB00F3
:100A40000B445A60F979FB79094ADB0013445B686F
:100A50005A1E0748CB0003445A60FB790133FB71EF
:100A6000FB79042BD0D900BF0837BD4680BD00BF3D
:100A70007C02002080B400AF074B1B78002B03D111
:100A8000054B01221A7002E0044B01221A7000BFCC
:100A9000BD4680BC704700BF1C0100201D01002026
:100AA00090B587B002AF4FF00003FB6000233B819D
:100AB0000023FB710023BB7100237B7100233B717A
:100AC0000023FB7007F10B03184601F00FF8FB1C25
:100AD000184600F03FFFFB78022B4ED1BC1D07F1FA
:100AE0000802F91D381D7B1D0093234600F0BCFF52
:100AF0003B79002B1CD13B891B01184603F0D8F829
:100B00000446FB79184603F0D3F8034619462046FD
:100B100003F0D6F903461C46BB79184603F0C8F823
:100B200003461946204603F0CBF90346FB6030E04C
:100B30003B79012B2DD13B891A4613469B00134468
:100B40009A001344184603F0B3F80446FB7918469C
:100B500003F0AEF803461946204603F0B1F9034608
:100B60001C46BB79184603F0A3F8034619462046F5
:100B700003F0A6F90346FB600BE0FB78012B02D1E2
:100B80003D4BFB6005E0FB78002B02D14FF0834327
:100B9000FB60FB7A002B65D0FB7A0F2B62D801A299
:100BA00052F823F0650C0008650C0008650C00087D
:100BB000650C0008650C0008650C0008650C000851
:100BC000650C0008E50B0008F50B0008050C000893
:100BD000150C0008250C0008350C0008450C000811
:100BE000550C00084FF08041F86803F069F903469E
:100BF000FB6037E04FF08041F86803F061F903468D
:100C0000FB602FE04FF08241F86803F059F903468A
:100C1000FB6027E04FF08341F86803F051F9034689
:100C2000FB601FE04FF08541F86803F049F9034687
:100C3000FB6017E04FF08641F86803F041F9034686
:100C4000FB600FE04FF08741F86803F039F9034685
:100C5000FB6007E04FF08841F86803F031F9034684
:100C6000FB6000BFF86803F0C7F90346DBB2184623
:100C70001437BD4690BD00BF0000C84190B585B097
:100C800000AF78600023FB730023BB737B681B8974
:100C9000184600F0C3FB0346BB737B68DB7A0F2B5F
:100CA00000F27C8101A252F823F000BFED0C000895
:100CB000110D0008350D0008590D00086D0D0008D4
:100CC000910D0008C50D0008F90D00081D0E000863
:100CD000510E0008850E0008A90E0008DD0E000860
:100CE000110F0008350F0008690F00087B68D3E971
:100CF0000034BA7B92B21846214600F0F5F97B68C1
:100D0000D3E90001BB7B9AB2002300F011FB48E15C
:100D10007B68D3E90034BA7B92B21846214600F0D2
:100D2000E3F97B68D3E90001BB7B9AB2012300F0B1
:100D3000FFFA36E17B68D3E90034BA7B92B21846F9
:100D4000214600F0D1F97B68D3E90001BB7B9AB260
:100D5000022300F0EDFA24E17B68D3E90034BA7B8A
:100D600092B21846214600F067FA1AE17B68D3E98F
:100D70000034BA7B92B21846214600F0E7F97B684E
:100D8000D3E90001BB7B9AB2012300F00DFB08E11F
:100D90007B68D3E90034BA7B92B21846214600F052
:100DA000D5F97B68D3E90001BB7B9AB2012300F03F
:100DB000FBFA7B68D3E90001BB7B9AB2012300F008
:100DC000B7FAEEE07B68D3E90034BA7B92B21846FA
:100DD000214600F0BBF97B68D3E90001BB7B9AB2E6
:100DE000012300F0E1FA7B68D3E90001BB7B9AB2F2
:100DF000022300F09DFAD4E07B68D3E90034BA7B8B
:100E000092B21846214600F0A1F97B68D3E90001AF
:100E1000BB7B9AB2002300F0C7FAC2E07B68D3E93B
:100E20000034BA7B92B21846214600F08FF97B68F5
:100E3000D3E90001BB7B9AB2002300F0B5FA7B68CE
:100E4000D3E90001BB7B9AB2012300F071FAA8E05C
:100E50007B68D3E90034BA7B92B21846214600F091
:100E600075F97B68D3E90001BB7B9AB2002300F0DF
:100E70009BFA7B68D3E90001BB7B9AB2022300F0A6
:100E800057FA8EE07B68D3E90034BA7B92B21846F9
:100E9000214600F097F97B68D3E90001BB7B9AB249
:100EA000002300F081FA7CE07B68D3E90034BA7B50
:100EB00092B21846214600F085F97B68D3E900011B
:100EC000BB7B9AB2002300F06FFA7B68D3E9000184
:100ED000BB7B9AB2012300F02BFA62E07B68D3E976
:100EE0000034BA7B92B21846214600F06BF97B6859
:100EF000D3E90001BB7B9AB2002300F055FA7B686E
:100F0000D3E90001BB7B9AB2022300F011FA48E05A
:100F10007B68D3E90034BA7B92B21846214600F0D0
:100F200051F97B68D3E90001BB7B9AB2012300F041
:100F30003BFA36E07B68D3E90034BA7B92B21846BC
:100F4000214600F03FF97B68D3E90001BB7B9AB2F0
:100F5000012300F029FA7B68D3E90001BB7B9AB238
:100F6000012300F0E5F91CE07B68D3E90034BA7B8B
:100F700092B21846214600F025F97B68D3E90001BA
:100F8000BB7B9AB2012300F00FFA7B68D3E9000122
:100F9000BB7B9AB2022300F0CBF902E00323FB7380
:100FA00000BF7B68D3E90001BB7B9AB27B689B7A68
:100FB00000F07EF9FB7B18461437BD4690BD00BF9C
:100FC00090B589B000AFC7E9020111461A460B4639
:100FD000FB8013467B710023FB77BB68BB6100235A
:100FE0007B610023FB740023BB61FB88184600F083
:100FF00015FA0346FB74D7E902344FF0FF314FF086
:10100000000203EA010304EA0204C7E90234FB7C9C
:10101000072B1AD8BB681B6A7B61FB7C9B000322F1
:1010200002FA03F3DB431A467B6913407B617A794A
:10103000FB7C9B0002FA03F31A467B6913437B6136
:10104000BB681A467B6913621CE0FB7C083BFB749F
:10105000BB685B6A7B61FB7C9B00032202FA03F3A3
:10106000DB431A467B6913407B617A79FB7C9B00EA
:1010700002FA03F31A467B6913437B61BB681A4685
:101080007B695362FB7F18462437BD4690BD00BF85
:1010900090B486B000AFC7E9020111461A460B466C
:1010A000FB8013467B710023FB75BB683B6100230B
:1010B0003B61D7E902344FF0FF314FF0000203EA01
:1010C000010304EA0204C7E90234BB681946FA883E
:1010D0007B791B0102FA03F38B61FB7D18461837FD
:1010E000BD4690BC704700BF90B488B000AFC7E960
:1010F00002011346FB800023FB770023BB61BB6822
:101100007B6100237B61D7E902344FF0FF314FF060
:10111000000203EA010304EA0204C7E90234BB68DF
:101120001B68BB61FB885B00032202FA03F3DB430D
:101130001A46BB691340BB61BB681A46BB691360A2
:10114000FB7F18462037BD4690BC704790B488B0EE
:1011500000AFC7E902011346FB800023FB770023A1
:101160007B61BB68BB610023BB61D7E902344FF0F0
:10117000FF314FF0000203EA010304EA0204C7E969
:101180000234BB681B687B61FB885B00032202FAA8
:1011900003F3DB431A467B6913407B61FB885B00EA
:1011A000012202FA03F31A467B6913437B61BB6891
:1011B0001A467B691360FB7F18462037BD4690BCFA
:1011C000704700BF90B488B000AFC7E90201134672
:1011D000FB800023FB770023BB61BB687B6100239E
:1011E0007B61D7E902344FF0FF314FF0000203EA90
:1011F000010304EA0204C7E90234BB681B68BB614F
:10120000FB88032202FA03F3DB431A46BB6913404F
:10121000BB61FB885B00022202FA03F31A46BB693A
:101220001343BB61BB681A46BB691360FB7F18465A
:101230002037BD4690BC704790B488B000AFC7E976
:1012400002011346FB800023FB770023BB61BB68D0
:101250007B6100237B61D7E902344FF0FF314FF00F
:10126000000203EA010304EA0204C7E90234BB688E
:101270001B68BB61FB885B00032202FA03F3DB43BC
:101280001A46BB691340BB61FB885B00032202FA6C
:1012900003F31A46BB691343BB61BB681A46BB69BB
:1012A0001360FB7F18462037BD4690BC704700BFD7
:1012B00090B488B000AFC7E9020111461A460B4648
:1012C000FB8013467B710023FB770023BB61BB6867
:1012D0007B6100237B61D7E902344FF0FF314FF08F
:1012E000000203EA010304EA0204C7E90234BB680E
:1012F0009B68BB61FB885B00032202FA03F3DB43BC
:101300001A46BB691340BB617A79FB885B0002FA1D
:1013100003F31A46BB691343BB61BB681A46BB693A
:101320009360FB7F18462037BD4690BC704700BFD6
:1013300090B488B000AFC7E902013B601346FB8060
:101340000023FB770023BB61BB687B6100237B61CB
:10135000D7E902344FF0FF314FF0000203EA0103F6
:1013600004EA0204C7E90234BB68DB68BB61FB889E
:101370005B00032202FA03F3DB431A46BB69134006
:10138000BB61FB885B003A6802FA03F3BA69134356
:10139000BB61BB681A46BB69D360FB7F1846203728
:1013A000BD4690BC704700BF90B488B000AFC7E99D
:1013B00002013B601346FB800023FB770023BB61E7
:1013C000BB687B6100237B61D7E902344FF0FF31BA
:1013D0004FF0000203EA010304EA0204C7E9023401
:1013E000BB685B68BB61FB88012202FA03F3DB4345
:1013F0001A46BB691340BB61FB883A6802FA03F3E3
:10140000BA691343BB61BB681A46BB695360FB7F73
:1014100018462037BD4690BC704700BF80B485B0E9
:1014200000AF0346FB800023FB6002E0FB68013352
:10143000FB60FA88FB6842FA03F303F00103002B18
:10144000F4D0FB6818461437BD4680BC704700BF17
:1014500090B589B000AFC7E902013B601346FB803D
:101460000023FB773B68002B02D10223FB7729E0A6
:10147000BB68BB610023BB61D7E902344FF0FF3189
:101480004FF0000203EA010304EA0204C7E9023450
:10149000FB881846FFF7C2FF7861BB68103303F082
:1014A0007042BB6810335B0123F07E4323F01F03BF
:1014B0001A447B699B00134403F100731B68DAB282
:1014C0003B681A70FB7F18462437BD4690BD00BFAD
:1014D00090B484B000AF0346FB7197F90720184B16
:1014E0001340002B03DA013B63F01F0301335BB2AF
:1014F000BB7397F90730002B00DA1F335B115BB227
:101500007B730023FB7397F90730552B02DD032310
:10151000FB730EE00B4B1B687A7B0A490968787BEA
:1015200051F82010B87B012404FA00F0014343F87D
:101530002210FB7B18461037BD4690BC704700BF99
:101540001F0000801000002080B584B000AF03466B
:10155000FB718E4B00221A708D4B00221A600523FE
:10156000FB738C4B00221A60FB79012B06D0022BF7
:1015700000F08180002B00F0FF8082E1864B1B6829
:10158000854A1268126842F480321A6004E0804B87
:101590001B6801337E4A13607F4B1B6803F0704267
:1015A0007D4B1B685B0123F07E4323F01F03134434
:1015B00003F1007344331B68002B05D1744B1B6887
:1015C00042F20F729342E2D9734B1B6803F07042F0
:1015D000714B1B685B0123F07E4323F01F03134410
:1015E00003F1007344331B68002B39D06A4B1B682E
:1015F0009B6823F00303674A1360664B1B6843F044
:101600000103644A1360644B1B68624A12689A6063
:1016100007F10F03184600F0E1F90346FB7304E0FD
:101620005B4B1B6801335A4A1360FB7B012B05D0CF
:10163000574B1B6842F20F729342F1D9FB7B012B8F
:1016400003D1524B00221A7016E1514B1B6842F233
:101650001072934240F210814C4B07221A700BE13A
:101660004B4B1B6842F21072934240F20581474B8C
:1016700007221A7000E1484B1B68474A126812683B
:1016800042F080721A6004E0414B1B680133404A0B
:101690001360414B1B6803F070423F4B1B685B01BA
:1016A00023F07E4323F01F03134403F100736433DC
:1016B0001B68002B05D1364B1B6842F20F72934218
:1016C000E2D9354B1B6803F07042334B1B685B015A
:1016D00023F07E4323F01F03134403F100736433AC
:1016E0001B68002B3DD02C4B1B689B68294A13605C
:1016F000284B1B6823F00303264A1360254B1B6805
:1017000043F00203234A1360234B1B68214A1268EB
:101710009A6007F10F03184600F060F90346FB7367
:1017200004E01B4B1B680133194A1360FB7B022B3F
:1017300005D0174B1B6842F20F729342F1D9FB7B25
:10174000022B03D1114B00221A7097E0104B1B683B
:1017500042F21072934240F291800C4B07221A70B1
:101760008CE00B4B1B6842F21072934240F2868071
:10177000064B07221A7081E0074B1B68064A126865
:10178000126842F001021A600DE000BF240100203F
:101790002001002028010020140000203C4B1B6881
:1017A00001333B4A13603B4B1B6803F07042394BDB
:1017B0001B685B0123F07E4323F01F03134403F1F6
:1017C000007304331B68002B05D1314B1B6842F2B8
:1017D0000F729342E2D92F4B1B6803F070422D4BDE
:1017E0001B685B0123F07E4323F01F03134403F1C6
:1017F000007304331B68002B34D0264B1B689B6896
:1018000023F00303244A1360234B1B68224A13600E
:10181000204B1B68204A12689A6007F10F03184694
:1018200000F0DCF804E01A4B1B680133184A13601F
:10183000FB7B002B05D0164B1B6842F20F729342C4
:10184000F1D9FB7B002B03D1144B00221A7017E057
:101850000F4B1B6842F21072934211D90F4B0722B3
:101860001A700DE00A4B1B6842F21072934207D9BE
:101870000A4B07221A7003E000BF02E000BF00E03D
:1018800000BF064B1B7818461037BD4680BD00BF11
:101890002001002014000020280100202401002045
:1018A00080B483B000AF03460A46FB711346BB7198
:1018B000264B00221A70FB79032B3BD801A252F869
:1018C00023F000BFD5180008ED180008051900081E
:1018D0001D1900081E4B1B681D4A1268126BB9794E
:1018E000012000FA01F10A431A6327E0184B1B6834
:1018F000174A1268526BB979012000FA01F10A43C4
:101900005A631BE0124B1B68114A1268126CB979BA
:10191000012000FA01F10A431A640FE00C4B1B6826
:101920000B4A1268526CB979012000FA01F10A439E
:101930005A6403E0054B04221A7000BF034B1B7866
:1019400018460C37BD4680BC704700BF24010020FC
:101950001400002080B483B000AF78601D4B0022DB
:101960001A707B68002B02D11A4B06221A701A4B90
:101970001B68083303F07042174B1B6808335B0188
:1019800023F07E4323F01F03134403F10073083355
:101990001B68DAB2104B1B68083303F070410E4B22
:1019A0001B6808335B0123F07E4323F01F030B44C5
:1019B00003F100730C331B68DBB25B00DBB2134333
:1019C000DAB27B681A70034B1B7818460C37BD4699
:1019D00080BC7047240100201400002080B483B034
:1019E00000AF78601E4B00221A707B68002B03D179
:1019F0001B4B06221A702BE01A4B1B68083303F0AE
:101A00007042184B1B6808335B0123F07E4323F0C0
:101A10001F03134403F1007308331B68DAB2114B40
:101A20001B68083303F070410E4B1B6808335B01E1
:101A300023F07E4323F01F030B4403F100730C33A8
:101A40001B68DBB25B00DBB21343DAB27B681A704F
:101A50007B681B7818460C37BD4680BC704700BFBA
:101A6000240100201400002080B487B000AFF8608B
:101A7000B9607A603B600023FB751B4B1B685B6899
:101A80009B0DDBB203F00103DAB2FB681A70164B50
:101A90001B685B68DBB203F03F03DAB2BB681A7005
:101AA000114B1B685B689B099BB2C3F308039AB296
:101AB0007B681A800C4B1B685B681B0CDBB203F065
:101AC0000303DAB23B681A70074B1B685B681B0E96
:101AD000DBB203F00F03DAB23B6A1A70FB7D1846E3
:101AE0001C37BD4680BC70471400002080B485B010
:101AF00000AF78600023FB73074B1B689B681B09D2
:101B0000DBB203F00F03DAB27B681A70FB7B184676
:101B10001437BD4680BC70471400002080B483B0E9
:101B200000AF0023FB71074B1B68064A126812685E
:101B300042F001021A60FB7918460C37BD4680BCA2
:101B4000704700BF1800002080B483B000AF0023AE
:101B5000FB71074B1B68064A1268126842F00202CA
:101B60001A60FB7918460C37BD4680BC704700BF31
:101B70001800002080B485B000AF78600023FB73AC
:101B80007B68002B03D0064A7B68136001E00223C8
:101B9000FB73FB7B18461437BD4680BC704700BF03
:101BA0002C01002080B500AF044B1B68002B02D035
:101BB000024B1B68984700BF80BD00BF2C0100206E
:101BC00090B58BB000AF7860002387F827304FF0D6
:101BD00000034FF00004C7E9063400F077F803462D
:101BE000FB75FEF75DFF0346184601F077FC0346E0
:101BF0000C46C7E902344FF00002304BD7E902012E
:101C000001F0E2FC03460C46C7E90234FB7D012BE0
:101C100021D1786801F062FCD7E9022301F0D4FCFD
:101C200003460C46C7E906344FF07E42244BD7E901
:101C3000060101F059FF0346002B03D0032387F868
:101C4000273035E01F4B1C68D7E9060101F056FF2D
:101C5000034663602CE0FB7D002B29D1786801F0FE
:101C60003DFCD7E9022301F0AFFC03460C461846C1
:101C700021464FF00002144B01F0D0FD03460C4604
:101C8000C7E906344FF07E420D4BD7E9060101F05B
:101C90002BFF0346002B03D0032387F8273007E0F0
:101CA000084B1C68D7E9060101F028FF0346636072
:101CB00097F8273018462C37BD4690BD00408F401E
:101CC000FFFFAF41180000200000204080B400AFAB
:101CD000054B1B681B689B08DBB203F00103DBB2FA
:101CE0001846BD4680BC70471800002090B589B0EA
:101CF00000AF78600023FB774FF00003BB61002347
:101D00007B6100233B610023FB600023BB77002342
:101D1000BB83FEF7C5FE03467B617B696D4A02FB10
:101D200003F37B617B68002B01D10223FB777B6887
:101D3000D3E900344FF000014FF00F0203EA010332
:101D400004EA0204022C08BF002B40F0BC807B6830
:101D5000D3E90034FB60FB68DB683B613B6923F43B
:101D6000364323F00C033B617B689B8A1A467B68F1
:101D70001B7A13437A68D28A13437A68528A1343D0
:101D80001A463B6913433B61FB683A69DA60FB68BA
:101D90001B693B613B6923F440533B617B681B8AB1
:101DA0001A463B6913433B61FB683A691A617B68D9
:101DB000DB8A002B33D17B68DB681B01184601F0FE
:101DC00073FF0346BB61786901F06EFF0346194655
:101DD000B86902F075F80346BB61B9694FF07E50EF
:101DE00002F06EF80346BB61B86902F005F90346DC
:101DF000BB83BB8B184601F05BFF03461946B869ED
:101E000001F0A0FE03464FF08341184601F0A4FF05
:101E10000346184602F0F0F80346BB7737E07B68CC
:101E2000DB8AB3F5004F32D17B68DB68DB001846F4
:101E300001F03AFF0346BB61786901F035FF0346C4
:101E40001946B86902F03CF80346BB61B9694FF026
:101E50007E5002F035F80346BB61B86902F0CCF859
:101E60000346BB83BB8B184601F022FF034619468D
:101E7000B86901F067FE03464FF08241184601F051
:101E80006BFF0346184602F0B7F80346BB77FB68C2
:101E90009B683B613B691B0C1B043B61BA7FBB8B9E
:101EA0001B0113431A463B6913433B61FB683A69C4
:101EB0009A60FB68FA68D26842F40052DA60FB6804
:101EC00000221A6001E00523FB77FB7F18462437C8
:101ED000BD4690BD40420F0080B485B000AF786031
:101EE0000B467B800023FB607B68DB68FB607B88A4
:101EF000FA681343FB607B68FA68DA6000BF143746
:101F0000BD4680BC704700BF80B485B000AF78602C
:101F10000B467B800023FB607B68DB68FB607B8873
:101F2000DB437B807B88FA681340FB607B68FA6840
:101F3000DA6000BF1437BD4680BC70470000000067
:101F400090B587B000AFC7E902017A607B800023BB
:101F5000FB7500233B61D7E902344FF000014FF0DD
:101F60000F0203EA010304EA0204022C08BF002B5B
:101F700074D1BB683B61D7E9023444A2D2E90012B4
:101F8000944208BF8B420ED039494FF0020294426E
:101F900008BF8B4235D037494FF00202944208BF48
:101FA0008B4217D055E0344B1B78012B02D106230E
:101FB000FB754EE0314A7B681360314A7B881380A1
:101FC000304B00221A80304ABB6A13602A4B012230
:101FD0001A703EE0284B5B78012B02D10623FB757B
:101FE00037E0264A7B685360254A7B885380254B1F
:101FF00000225A80244ABB6A93611F4B01225A7007
:1020000027E01D4B9B78012B02D10623FB751FE0B7
:102010001A4A7B6893601A4A7B889380194B002286
:102020009A80194ABB6A1363114A144B9B6815497D
:10203000098889B20B441B78DBB25360114B9B8833
:102040009BB201339AB20F4B9A800B4B01229A70CC
:1020500000BF40213869FFF73FFF01E00523FB7512
:10206000FB7D18461C37BD4690BD00BFAFF3008016
:102070000014014000440040900100207C01002039
:102080008801002094010020300100200010014050
:10209000020000000000000090B587B000AFC7E963
:1020A00002017A607B800023FB7500233B617B6823
:1020B000002B02D10223FB7573E0D7E902344FF005
:1020C00000014FF00F0203EA010304EA0204022CAC
:1020D00008BF002B63D1BB683B61D7E902343BA248
:1020E000D2E90012944208BF8B420ED030494FF023
:1020F0000202944208BF8B4235D02E494FF00202B3
:10210000944208BF8B4217D044E02B4B1B78012B25
:1021100002D10723FB753DE0284A7B681360284AFB
:102120007B881380274B00221A80274ABB6A936062
:10213000214B01221A702DE01F4B5B78012B02D13D
:102140000723FB7526E01D4A7B6853601C4A7B8889
:1021500053801C4B00225A801B4ABB6A1362164BE9
:1021600001225A7016E0144B9B78012B02D10723F1
:10217000FB750EE0114A7B689360114A7B8893805F
:10218000104B00229A80104ABB6A93630A4B0122CB
:102190009A7000BF20213869FFF79EFE01E00523F9
:1021A000FB75FB7D18461C37BD4690BDAFF3008024
:1021B00000140140004400409C010020A0010020C8
:1021C000AC010020C00100203001002000100140BF
:1021D0000200000080B500AF544B1B68012B3AD1C0
:1021E000534B1B78012B36D1524B1B681B78DBB24B
:1021F000002B08D0504B514A1278D2B25A604D4B46
:102200001B6800221A704E4B1B889AB24D4B1B88DC
:102210009BB29A4211D24C4B1B68494A128892B227
:102220001344454A5268D2B21A70454B1B889BB280
:1022300001339AB2424B1A8006E03D4B00221A70DD
:1022400020213D48FFF760FE404B9B68002B02D0E9
:102250003E4B9B6898473E4B1B68012B38D13D4B4A
:102260001B78012B2DD1354B1B78DBB2002B07D00F
:10227000314B324A1278D2B25A60304B00221A7077
:10228000354B1B889AB2354B1B889BB29A4211D2B0
:10229000294A334B1B683049098889B20B441B78A3
:1022A000DBB253602C4B1B889BB201339AB22A4B92
:1022B0001A8006E0274B00221A7080211E48FFF783
:1022C00023FE224B1B68002B02D0204B1B68984733
:1022D000244B1B68012B06D11C4B5B68002B02D0E2
:1022E0001A4B5B689847204B1B68012B06D1174B94
:1022F000DB68002B02D0154BDB6898471B4B1B6833
:10230000012B06D1114B1B69002B02D00F4B1B690F
:102310009847174B1B68012B06D10C4B5B69002BB0
:1023200002D00A4B5B69984700BF80BD140022426F
:102330009C010020B4010020001001407801002021
:10234000C0010020AC010020A001002030010020CD
:102350001C002242900100209401002088010020EE
:102360007C010020180022420C0022421000224270
:102370000000224280B500AF544B1B68012B3AD1BC
:10238000534B5B78012B36D1524B5B681B78DBB229
:10239000002B08D0504B514A5278D2B25A604D4B64
:1023A0005B6800221A704E4B5B889AB24D4B5B887B
:1023B0009BB29A4211D24C4B5B68494A528892B206
:1023C0001344454A5268D2B21A70454B5B889BB29F
:1023D00001339AB2424B5A8006E03D4B00225A70BC
:1023E00020213D48FFF790FD404B1B6A002B02D097
:1023F0003E4B1B6A98473E4B1B68012B38D13D4B27
:102400005B78012B2DD1354B5B78DBB2002B07D0ED
:10241000314B324A5278D2B25A60304B00225A7055
:10242000354B5B889AB2354B5B889BB29A4211D28E
:10243000294A334B5B683049498889B20B441B7881
:10244000DBB253602C4B5B889BB201339AB22A4BB0
:102450005A8006E0274B00225A7080211E48FFF761
:1024600053FD224B9B69002B02D0204B9B69984760
:10247000244B1B68012B06D11C4BDB69002B02D0BF
:102480001A4BDB699847204B1B68012B06D1174B71
:102490005B6A002B02D0154B5B6A98471B4B1B688D
:1024A000012B06D1114B9B6A002B02D00F4B9B6A6C
:1024B0009847174B1B68012B06D10C4BDB6A002B8E
:1024C00002D00A4BDB6A984700BF80BD14800842E7
:1024D0009C010020B401002000440040780100204D
:1024E000C0010020AC010020A0010020300100202C
:1024F0001C800842900100209401002088010020E7
:102500007C010020188008420C800842108008429C
:102510000080084280B500AF464B1B68012B2BD1D1
:10252000454B9B78012B27D1444B9B889AB2444B57
:102530009B889BB29A4211D2424B9B683F4A928839
:1025400092B21344404A5268D2B21A703B4B9B88F5
:102550009BB201339AB2394B9A8006E0364B002287
:102560009A7020213848FFF7CFFC384B9B6B002B2B
:1025700002D0364B9B6B9847354B1B68012B06D11D
:10258000324B1B6B002B02D0304B1B6B9847314BEF
:102590001B68012B2BD1304B9B78012B20D12F4B6B
:1025A0009B889AB22E4B9B889BB29A4211D2264AA4
:1025B0002C4B9B682949898889B20B441B78DBB274
:1025C0005360264B9B889BB201339AB2234B9A806F
:1025D00006E0214B00229A7040211B48FFF794FC33
:1025E0001A4B5B6B002B02D0184B5B6B98471E4B52
:1025F0001B68012B06D1154BDB6B002B02D0134B54
:10260000DB6B9847194B1B68012B06D10F4B1B6CDA
:10261000002B02D00D4B1B6C9847154B1B68012BF0
:1026200006D10A4B5B6C002B02D0084B5B6C9847C1
:1026300000BF80BD148022429C010020C001002008
:10264000AC010020A0010020001401403001002056
:102650001C80224218802242900100209401002018
:10266000880100207C0100200C8022421080224240
:102670000080224290B585B000AF6A4B1B78002BDA
:102680002DD1694B01221A70664B00221A701EE090
:102690000723FB72634B1B78644A1B011344083306
:1026A0001B883B815F4B1B78604A1B011344D3E9B5
:1026B0000034C7E900340323BB723B461846FEF7DB
:1026C000DDFA584B1B780133DAB2564B1A70554B72
:1026D0001B780A2BDCD9544B01221A709DE0544B15
:1026E0001B78062B00F2988001A252F823F000BF5D
:1026F0000D2700081B2700084B2700087B27000830
:10270000AB270008DB2700080B280008484B0122F4
:102710001A70484B01221A707FE0464B1B78012B40
:1027200009D1382000F0E0F8002000F033F9414BE7
:1027300000221A7071E0012000F02CF93D4B0122BB
:102740001A703B4B02221A7067E03A4B1B78012B40
:1027500009D10C2000F0C8F8002000F01BF9354B1F
:1027600000221A7059E0012000F014F9314B0122C7
:102770001A702F4B04221A704FE02E4B1B78012B3E
:1027800009D1062000F0B0F8002000F003F9294B31
:1027900000221A7041E0012000F0FCF8254B0122D4
:1027A0001A70234B05221A7037E0224B1B78012B3D
:1027B00009D1012000F098F8002000F0EBF81D4B43
:1027C00000221A7029E0012000F0E4F8194B0122E0
:1027D0001A70174B03221A701FE0164B1B78012B3F
:1027E00009D1022000F080F8002000F0D3F8114B4E
:1027F00000221A7011E0012000F0CCF80D4B0122EC
:102800001A700B4B06221A7007E00B4B06221A7047
:10281000054B00221A7000E000BF00BF1437BD4610
:1028200090BD00BF6302002062020020F04A000851
:10283000640200201C0000205C02002080B584B0EF
:1028400000AF0346FB800023FB730023BB73254BC3
:10285000D3E90001234B1A890023FEF719FC214B11
:10286000D3E904011F4B1A8B0123FEF711FC00234F
:10287000FB7330E0FA88FB7B42FA03F3DBB203F030
:102880000103BB73BB7B012B11D1FB7B0333154AC7
:102890001B011344D3E90001FB7B0333114A1B01E5
:1028A000134408331A880023FEF7F2FB10E0FB7B89
:1028B00003330C4A1B011344D3E90001FB7B0333B0
:1028C000084A1B01134408331A880123FEF7E0FB72
:1028D000FB7B0133FB73FB7B072BCBD900BF10378E
:1028E000BD4680BDF04A000880B584B000AF034605
:1028F000FB800023FB730023BB73254BD3E900014E
:10290000234B1A890123FEF7C3FB214BD3E90401B2
:102910001F4B1A8B0123FEF7BBFB0023FB7330E038
:10292000FA88FB7B42FA03F3DBB203F00103BB73CB
:10293000BB7B012B11D1FB7B0333154A1B011344D5
:10294000D3E90001FB7B0333114A1B011344083315
:102950001A880023FEF79CFB10E0FB7B03330C4A34
:102960001B011344D3E90001FB7B0333084A1B011D
:10297000134408331A880123FEF78AFBFB7B0133DB
:10298000FB73FB7B072BCBD900BF1037BD4680BD47
:10299000F04A000880B582B000AF0346FB71064BD9
:1029A000D3E90801044B1A8DFB79FEF771FB00BFD8
:1029B0000837BD4680BD00BFF04A000890B484B01F
:1029C00000AF7860084611461A460346FB700B4676
:1029D000BB7013467B700023FB730023BB73002383
:1029E0007B73BB78012B02D87B780F2B01D9032393
:1029F000FB737B68002B02D10223FB7377E000237B
:102A0000BB736AE0BA7B3D491346DB0013449B006D
:102A100013440B4424331B78002B5BD100237B73BE
:102A200012E0BA7B797B7B7B786803441C7833485F
:102A30001346DB0013449B00134403440B4422461B
:102A40001A707B7B01337B737A7BFB789A42E8D3E5
:102A5000BA7B2A491346DB0013449B0013440B4402
:102A60002033BA781A70BA7B24491346DB0013442A
:102A70009B0013440B4421337A781A70BA7B1F49A8
:102A80001346DB0013449B0013440B442233FA78B3
:102A90001A70BA7B19491346DB0013449B00134498
:102AA0000B44233300221A70BA7B14491346DB000F
:102AB00013449B0013440B44243301221A70104B1F
:102AC0001B78002B0DD10E4B01221A700D4B0022EA
:102AD0001A7006E0BB7B0133BB73BB7B032B91D920
:102AE00000E000BFBB7B042B01D10423FB73FB7B05
:102AF00018461037BD4690BC704700BFC801002083
:102B00005E0200205D02002080B584B000AF034665
:102B10000A46FB711346BB710023FB73FB79002B44
:102B200002D1BB79FB7305E0FB79012B02D1BB79A4
:102B30004033FB73FB7B63F07F03DBB29BB2184631
:102B4000FFF7D2FE00BF1037BD4680BD80B500AF95
:102B50000D4B02221A700D4B1B78012B09D101205D
:102B6000FFF7C2FE0020FFF715FF084B00221A7086
:102B700008E00120FFF70EFF044B01221A70024B00
:102B800000221A7000BF80BD5E0200201C000020E1
:102B900080B500AF854B1B78DBB2032B00F20381BD
:102BA00001A252F823F000BFB92B0008C72B000880
:102BB0002B2C0008092D00087C4B01221A707C4B3D
:102BC00001221A70EFE07A4B1B78012B23D1794B4D
:102BD0001B78DBB21A4678491346DB0013449B008E
:102BE00013440B4420331878724B1B78DBB21A461F
:102BF00071491346DB0013449B0013440B442133FB
:102C00001B781946FFF780FF0020FFF7C3FE684BD3
:102C100000221A70C7E00120FFF7BCFE644B0122BE
:102C20001A70624B02221A70BDE0624B1B78DBB255
:102C30001A4661491346DB0013449B0013440B44BE
:102C4000233319785B4B1B78DBB21A465A4813467C
:102C5000DB0013449B001344034422331B78994246
:102C60004ED2534B1B78012B2AD1524B1B78DBB22F
:102C70001A4651491346DB0013449B0013440B448E
:102C800023331A784D4B1A704A4B1B78DBB21A4625
:102C90004A4B1B78DBB2184647491346DB00134406
:102CA0009B0013440B4403441B789BB21846FFF768
:102CB000C5FD0020FFF76EFE3D4B00221A7072E04A
:102CC0003B4B01221A700120FFF764FE394B1B7841
:102CD000DBB21A4638491346DB0013449B00134409
:102CE0000B4423331B780133D8B233491346DB003E
:102CF00013449B0013440B44233302461A7052E0E2
:102D00002A4B03221A704EE02A4B1B78DBB21A467C
:102D100029491346DB0013449B0013440B4424331E
:102D200000221A70264B00221A7015E0244B1B78E3
:102D3000DBB21A4620491346DB0013449B001344C0
:102D40000B4424331B78012B0CD01D4B1B78DBB2BA
:102D50000133DAB21A4B1A70194B1B78DBB2032B12
:102D6000E4D900E000BF164B1B78DBB2042B09D17D
:102D7000144B00221A700F4B00221A70124B0022C3
:102D80001A700FE0094B00221A700D4B1B78DAB253
:102D9000084B1A70074B1B78DBB2042B02D1054B92
:102DA00000221A7000BF00BF80BD00BF5D0200207E
:102DB0001C0000205F020020C801002060020020EB
:102DC000610200205E0200206202002090B587B000
:102DD00000AF0023BB750023FB750023FB751EE0CD
:102DE0000723FB72FB7D124A1B01134408331B8827
:102DF0003B81FB7D0E4A1B011344D3E90034C7E934
:102E00000034FB7D0A4A1B0113440A331B78BB7252
:102E10003B461846FDF732FFFB7D0133FB75FB7D1A
:102E2000012BDDD9BB7D18461C37BD4690BD00BFC8
:102E3000A04B000890B585B000AF03460A46FB7171
:102E40001346BB710023FB73BB79022B2BD1FB799B
:102E5000254A1B011344D3E90001FB79224A1B01D7
:102E6000134408331A88214BFEF7F2FAFB791E4A05
:102E70001B011344D3E90001FB791B4A1B011344D6
:102E800008331C88FB79184A1B0113440B331A784A
:102E9000164B1B785340DBB283F00103DBB22246B2
:102EA000FEF7F6F81AE0FB790F4A1B011344D3E949
:102EB0000001FB790C4A1B01134408331C88FB7981
:102EC000094A1B0113440B331A78BB795340DBB218
:102ED0002246FEF7DDF8054ABB791370FB7B1846E6
:102EE0001437BD4690BD00BFA04B0008650200200E
:102EF00080B485B000AF03463960FB710023FB73DB
:102F00003B68002B02D10223FB7304E0FB79054AE6
:102F1000D25C3B681A70FB7B18461437BD4680BCF8
:102F2000704700BFA402002080B500AF0B4B1B7898
:102F300003F00103DBB2002B06D1002300220521A0
:102F40000748FFF73BFD01E0FFF700FE034B1B784E
:102F50000133DAB2014B1A7000BF80BD6602002057
:102F6000D04B00080000000090B591B000AF0120E8
:102F7000FEF7EAFA00210020FEF792FC0121002072
:102F8000FEF78EFC04210320FEF78AFC05210320B6
:102F9000FEF786FC07234FF4806245484FF001019D
:102FA000FEF70EF807234FF4007241484FF001017D
:102FB000FEF706F808234FF400623D484FF0010188
:102FC000FDF7FEFF08234FF4805239484FF001010E
:102FD000FDF7F6FF0A2387F83B304FF400733B8779
:102FE000334B4FF00104C7E90C34032387F83A3020
:102FF00007F130031846FDF741FE4FF400633B87AD
:1030000007F130031846FDF739FE4FF480533B8734
:1030100007F130031846FDF731FE4FF480633B871C
:1030200007F130031846FDF729FE2520FEF750FA78
:103030004720FEF74DFA4FF416537B621AA4D4E9E9
:103040000034C7E906340023BB850C2387F8203001
:103050004FF40043FB8500237B8500233B8507F16C
:1030600018031846FEF742FE4FF41653FB60114B4F
:103070004FF00204C7E900340023BB820C233B72EB
:103080004FF40043FB8200237B8200233B823B46BC
:103090001846FEF72BFEFFF799FE00BF4437BD46EA
:1030A00090BD00BFAFF3008000100140020000009F
:1030B000000002400014014080B500AF0A4B1B78AD
:1030C000062B02D0FFF7D6FA0CE0084B1B78012B39
:1030D00002D0022B03D005E0FFF75AFD02E0FFF714
:1030E00035FD00BF00BF80BD5C0200205E020020F5
:1030F00080B582B000AF0223FB71FB1D1946002092
:10310000FFF7F6FEFB79012B04D101210120FFF727
:1031100091FE06E0FB79002B03D100210120FFF78F
:1031200089FE00BF0837BD4680BD00BF80B582B0B4
:1031300000AF0223FB71254B00221A603DE0234BB8
:103140001B68234A1B011344D3E900011F4B1B6872
:103150001F4A1B01134408331A88FB1DFEF778F938
:103160001A4B1B681A4A1B0113440B331A78FB795C
:103170005340DBB2FB71FA79164B1B789A4205D1AA
:10318000154B1B680133144A136002E0124B0022F6
:103190001A60114B1B68052B07D10C4B1B68F97982
:1031A0000E4AD1540C4B00221A60FA79094B1A705E
:1031B000064B1B680133054A1360044B1B68002B48
:1031C000BDDD00BF0837BD4680BD00BF68020020DE
:1031D000C04B00081D0000206C020020A40200204B
:1031E00080B582B002AF002300930123114A124838
:1031F0004FF00201FEF750FF0023009305230F4A12
:103200000D484FF00201FEF79BFE0A4B1B78612B25
:1032100004D101210020FFF70DFE07E0054B1B78CC
:10322000622B03D100210020FFF704FE00BFBD4642
:1032300080BD00BF1E0000200014014020000020BF
:1032400080B500AFFFF790FEFDF78CFBFDF7C4FBE8
:103250000023184680BD00BF81F0004102E000BF9E
:1032600083F0004330B54FEA41044FEA430594EA46
:10327000050F08BF90EA020F1FBF54EA000C55EA81
:10328000020C7FEA645C7FEA655C00F0E2804FEA52
:103290005454D4EB5555B8BF6D420CDD2C4480EA34
:1032A000020281EA030382EA000083EA010180EA64
:1032B000020281EA0303362D88BF30BD11F0004FB2
:1032C0004FEA01314FF4801C4CEA113102D04042E8
:1032D00061EB410113F0004F4FEA03334CEA133323
:1032E00002D0524263EB430394EA050F00F0A7803B
:1032F000A4F10104D5F1200E0DDB02FA0EFC22FA36
:1033000005F2801841F1000103FA0EF2801843FA29
:1033100005F359410EE0A5F120050EF1200E012A1A
:1033200003FA0EFC28BF4CF0020C43FA05F3C01858
:1033300051EBE37101F0004507D54FF0000EDCF1D1
:10334000000C7EEB00006EEB0101B1F5801F1BD37A
:10335000B1F5001F0CD349085FEA30004FEA3C0C7E
:1033600004F101044FEA445212F5800F80F09A8074
:10337000BCF1004F08BF5FEA500C50F1000041EB78
:10338000045141EA050130BD5FEA4C0C404141EB7C
:10339000010111F4801FA4F10104E9D191F0000FA3
:1033A00004BF01460020B1FA81F308BF2033A3F126
:1033B0000B03B3F120020CDA0C3208DD02F1140C1D
:1033C000C2F10C0201FA0CF021FA02F10CE002F158
:1033D0001402D8BFC2F1200C01FA02F120FA0CFC51
:1033E000DCBF41EA0C019040E41AA2BF01EB04519A
:1033F000294330BD6FEA04041F3C1CDA0C340EDC98
:1034000004F11404C4F1200220FA04F001FA02F3DA
:1034100040EA030021FA04F345EA030130BDC4F198
:103420000C04C4F1200220FA02F001FA04F340EA8D
:103430000300294630BD21FA04F0294630BD94F03E
:10344000000F83F4801306BF81F480110134013D25
:103450004EE77FEA645C18BF7FEA655C29D094EA96
:10346000050F08BF90EA020F05D054EA000C04BF14
:103470001946104630BD91EA030F1EBF00210020FF
:1034800030BD5FEA545C05D14000494128BF41F09E
:10349000004130BD14F580043CBF01F5801130BD02
:1034A00001F0004545F0FE4141F470014FF000008D
:1034B00030BD7FEA645C1ABF194610467FEA655C3E
:1034C0001CBF0B46024650EA013406BF52EA0335E0
:1034D00091EA030F41F4002130BD00BF90F0000FCE
:1034E00004BF0021704730B54FF4806404F132040A
:1034F0004FF000054FF0000150E700BF90F0000FC3
:1035000004BF0021704730B54FF4806404F13204E9
:1035100010F0004548BF40424FF000013EE700BFB9
:1035200042004FEAE2014FEA31014FEA02701FBF49
:1035300012F07F4393F07F4F81F06051704792F01B
:10354000000F14BF93F07F4F704730B54FF4607495
:1035500001F0004521F0004120E700BF50EA0102E0
:1035600008BF704730B54FF000050AE050EA01028D
:1035700008BF704730B511F0004502D5404261EBFD
:1035800041014FF4806404F132045FEA915C3FF43E
:10359000DCAE4FF003025FEADC0C18BF03325FEAD7
:1035A000DC0C18BF033202EBDC02C2F1200300FA8C
:1035B00003FC20FA02F001FA03FE40EA0E0021FAB1
:1035C00002F11444C1E600BF70B54FF0FF0C4CF49B
:1035D000E06C1CEA11541DBF1CEA135594EA0C0F51
:1035E00095EA0C0F00F0DEF82C4481EA030621EA8C
:1035F0004C5123EA4C5350EA013518BF52EA0335C7
:1036000041F4801143F4801338D0A0FB02CE4FF078
:103610000005E1FB02E506F00042E0FB03E54FF0A8
:103620000006E1FB03569CF0000F18BF4EF0010EA0
:10363000A4F1FF04B6F5007F64F5407404D25FEA9C
:103640004E0E6D4146EB060642EAC62141EA55514F
:103650004FEAC52040EA5E504FEACE2EB4F1FD0C91
:1036600088BFBCF5E06F1ED8BEF1004F08BF5FEA0F
:10367000500E50F1000041EB045170BD06F00046C1
:1036800046EA010140EA020081EA0301B4EB5C046E
:10369000C2BFD4EB0C0541EA045170BD41F4801166
:1036A0004FF0000E013C00F3AB8014F1360FDEBF8B
:1036B000002001F0004170BDC4F10004203C35DA67
:1036C0000C341BDC04F11404C4F1200500FA05F3EA
:1036D00020FA04F001FA05F240EA020001F000428B
:1036E00021F0004110EBD37021FA04F642EB060101
:1036F0005EEA430E08BF20EAD37070BDC4F10C042B
:10370000C4F1200500FA04F320FA05F001FA04F2EE
:1037100040EA020001F0004110EBD37041F10001DA
:103720005EEA430E08BF20EAD37070BDC4F12005E5
:1037300000FA05F24EEA020E20FA04F301FA05F24D
:1037400043EA020321FA04F001F0004121FA04F2F5
:1037500020EA020000EBD3705EEA430E08BF20EAC5
:10376000D37070BD94F0000F0FD101F000464000FF
:1037700041EB010111F4801F08BF013CF7D041EA81
:10378000060195F0000F18BF704703F00046520085
:1037900043EB030313F4801F08BF013DF7D043EA56
:1037A0000603704794EA0C0F0CEA135518BF95EA0C
:1037B0000C0F0CD050EA410618BF52EA4306D1D193
:1037C00081EA030101F000414FF0000070BD50EAB2
:1037D000410606BF1046194652EA430619D094EA3C
:1037E0000C0F02D150EA013613D195EA0C0F05D126
:1037F00052EA03361CBF104619460AD181EA03017A
:1038000001F0004141F0FE4141F470014FF0000031
:1038100070BD41F0FE4141F4780170BD70B54FF0CC
:10382000FF0C4CF4E06C1CEA11541DBF1CEA13554C
:1038300094EA0C0F95EA0C0F00F0A7F8A4EB05042E
:1038400081EA030E52EA03354FEA013100F0888025
:103850004FEA03334FF0805545EA131343EA1263EE
:103860004FEA022245EA111545EA10654FEA0026A3
:103870000EF000419D4208BF964244F1FD0404F55C
:10388000407402D25B084FEA3202B61A65EB0305B8
:103890005B084FEA32024FF480104FF4002CB6EB75
:1038A000020E75EB030E22BFB61A754640EA0C00F5
:1038B0005B084FEA3202B6EB020E75EB030E22BF35
:1038C000B61A754640EA5C005B084FEA3202B6EB76
:1038D000020E75EB030E22BFB61A754640EA9C0035
:1038E0005B084FEA3202B6EB020E75EB030E22BF05
:1038F000B61A754640EADC0055EA060E18D04FEAC3
:10390000051545EA16754FEA06164FEAC30343EA62
:1039100052734FEAC2025FEA1C1CC0D111F4801F2F
:103920000BD141EA00014FF000004FF0004CB6E728
:1039300011F4801F04BF01430020B4F1FD0C88BFC7
:10394000BCF5E06F3FF6AFAEB5EB030C04BFB6EBD2
:10395000020C5FEA500C50F1000041EB045170BDC5
:103960000EF0004E4EEA113114EB5C04C2BFD4EBF2
:103970000C0541EA045170BD41F480114FF0000E76
:10398000013C90E645EA060E8DE60CEA135594EAF2
:103990000C0F08BF95EA0C0F3FF43BAF94EA0C0FF5
:1039A0000AD150EA01347FF434AF95EA0C0F7FF46A
:1039B00025AF104619462CE795EA0C0F06D152EABE
:1039C00003353FF4FDAE1046194622E750EA4106A2
:1039D00018BF52EA43067FF4C5AE50EA41047FF4B3
:1039E0000DAF52EA43057FF4EBAE12E74FF0FF3C18
:1039F00006E000BF4FF0010C02E000BF4FF0010CE9
:103A00004DF804CD4FEA410C7FEA6C5C4FEA430C61
:103A100018BF7FEA6C5C1BD001B050EA410C0CBFB0
:103A200052EA430C91EA030F02BF90EA020F002012
:103A3000704710F1000F91EA030F58BF994208BF79
:103A400090422CBFD8176FEAE37040F00100704736
:103A50004FEA410C7FEA6C5C02D150EA013C07D18D
:103A60004FEA430C7FEA6C5CD6D152EA033CD3D0D8
:103A70005DF8040B704700BF8446104662468C46D2
:103A80001946634600E000BF01B5FFF7B7FF002805
:103A900048BF10F1000F01BD4DF808EDFFF7F4FF2E
:103AA0000CBF012000205DF808FB00BF4DF808EDB9
:103AB000FFF7EAFF34BF012000205DF808FB00BFDC
:103AC0004DF808EDFFF7E0FF94BF012000205DF8FE
:103AD00008FB00BF4DF808EDFFF7CEFF94BF0120B3
:103AE00000205DF808FB00BF4DF808EDFFF7C4FFAC
:103AF00034BF012000205DF808FB00BF4A0011D24E
:103B000012F5001211D20DD56FF47873B3EB625237
:103B10000ED44FEAC12343F0004343EA505323FA43
:103B200002F070474FF00000704750EA013002D1B8
:103B30004FF0FF3070474FF00000704780F00040BA
:103B400002E000BF81F0004142001FBF5FEA410375
:103B500092EA030F7FEA226C7FEA236C6AD04FEA75
:103B60001262D2EB1363C1BFD218414048404140BA
:103B7000B8BF5B42192B88BF704710F0004F40F46C
:103B8000000020F07F4018BF404211F0004F41F488
:103B9000000121F07F4118BF494292EA030F3FD054
:103BA000A2F1010241FA03FC10EB0C00C3F1200367
:103BB00001FA03F100F0004302D5494260EB4000F6
:103BC000B0F5000F13D3B0F1807F06D340084FEA61
:103BD000310102F10102FE2A51D2B1F1004F40EB56
:103BE000C25008BF20F0010040EA030070474900BE
:103BF00040EB000010F4000FA2F10102EDD1B0FA89
:103C000080FCACF1080CB2EB0C0200FA0CF0AABF7D
:103C100000EBC25052421843BCBFD040184370471B
:103C200092F0000F81F4000106BF80F40000013221
:103C3000013BB5E74FEA41037FEA226C18BF7FEAF8
:103C4000236C21D092EA030F04D092F0000F08BF3A
:103C50000846704790EA010F1CBF0020704712F021
:103C60007F4F04D1400028BF40F00040704712F160
:103C700000723CBF00F50000704700F0004343F0C5
:103C8000FE4040F4000070477FEA226216BF0846FB
:103C90007FEA23630146420206BF5FEA412390EABE
:103CA000010F40F4800070474FF0000304E000BFB4
:103CB00010F0004348BF40425FEA000C08BF704765
:103CC00043F0964301464FF000001CE050EA010229
:103CD00008BF70474FF000030AE000BF50EA01023E
:103CE00008BF704711F0004302D5404261EB41012B
:103CF0005FEA010C02BF84460146002043F0B64350
:103D000008BFA3F18053A3F50003BCFA8CF2083A74
:103D1000A3EBC25310DB01FA02FC634400FA02FC7D
:103D2000C2F12002BCF1004F20FA02F243EB020084
:103D300008BF20F00100704702F1200201FA02FCE6
:103D4000C2F1200250EA4C0021FA02F243EB0200D9
:103D500008BF20EADC7070474FF0FF0C1CEAD0521D
:103D60001EBF1CEAD15392EA0C0F93EA0C0F6FD0DE
:103D70001A4480EA010C400218BF5FEA41211ED0BC
:103D80004FF0006343EA501043EA5111A0FB0131A8
:103D90000CF00040B1F5000F3EBF490041EAD3717D
:103DA0005B0040EA010062F17F02FD2A1DD8B3F1F9
:103DB000004F40EBC25008BF20F00100704790F068
:103DC000000F0CF0004C08BF49024CEA502040EABA
:103DD00051207F3AC2BFD2F1FF0340EAC250704780
:103DE00040F400004FF00003013A5DDC12F1190FBE
:103DF000DCBF00F000407047C2F10002410021FA30
:103E000002F1C2F1200200FA02FC5FEA310040F147
:103E1000000053EA4C0308BF20EADC70704792F0C0
:103E2000000F00F0004C02BF400010F4000F013AF8
:103E3000F9D040EA0C0093F0000F01F0004C02BFF3
:103E4000490011F4000F013BF9D041EA0C018FE762
:103E50000CEAD15392EA0C0F18BF93EA0C0F0AD068
:103E600030F0004C18BF31F0004CD8D180EA01008E
:103E700000F00040704790F0000F17BF90F0004F27
:103E8000084691F0000F91F0004F14D092EA0C0F09
:103E900001D142020FD193EA0C0F03D14B0218BF9C
:103EA000084608D180EA010000F0004040F0FE40E2
:103EB00040F40000704740F0FE4040F4400070477E
:103EC0004FF0FF0C1CEAD0521EBF1CEAD15392EAFD
:103ED0000C0F93EA0C0F69D0A2EB030280EA010CED
:103EE00049024FEA402037D04FF0805343EA111186
:103EF00043EA10130CF000408B4238BF5B0042F1E4
:103F00007D024FF4000C8B4224BF5B1A40EA0C0088
:103F1000B3EB510F24BFA3EB510340EA5C00B3EBBA
:103F2000910F24BFA3EB910340EA9C00B3EBD10FA8
:103F300024BFA3EBD10340EADC001B0118BF5FEAFA
:103F40001C1CE0D1FD2A3FF650AF8B4240EBC25023
:103F500008BF20F0010070470CF0004C4CEA5020E4
:103F60007F32C2BFD2F1FF0340EAC250704740F433
:103F700000004FF00003013A37E792F0000F00F025
:103F8000004C02BF400010F4000F013AF9D040EAA3
:103F90000C0093F0000F01F0004C02BF490011F437
:103FA000000F013BF9D041EA0C0195E70CEAD1532F
:103FB00092EA0C0F08D142027FF47DAF93EA0C0F16
:103FC0007FF470AF084676E793EA0C0F04D14B02FA
:103FD0003FF44CAF08466EE730F0004C18BF31F0AC
:103FE000004CCAD130F000427FF45CAF31F00043A6
:103FF0007FF43CAF5FE700BF42000ED2B2F1FE4F4C
:104000000BD34FF09E03B3EB126209D44FEA0023A7
:1040100043F0004323FA02F070474FF0000070476E
:1040200012F1610F01D1420202D14FF0FF3070470F
:104030004FF00000704700BF014B1868704700BF89
:104040008800002030B5141E05469BB0184604DADF
:104050008B232B604FF0FF301DE04FF40273ADF85F
:104060000C3014BF04F1FF332346029305934FF63F
:10407000FF7300910491ADF80E3002461E9B694615
:10408000284600F073F8431CBCBF8B232B6014B18F
:10409000009B00221A701BB030BD000007B50093D2
:1040A00013460A46014603480068FFF7CBFF03B0FA
:1040B0005DF804FB880000202DE9F0478E689E42E1
:1040C00082460C46914698463ED88A8912F4906FF3
:1040D0003AD0256809696F1A6569022305EB450521
:1040E00095FBF3F57B1C43449D4238BF1D465305A9
:1040F0000FD5294600F090FB064698B13A46216953
:1041000000F016FBA38923F4906343F08003A3819E
:1041100013E02A4600F0DEFB064670B921695046DE
:1041200000F02CFB0C23CAF80030A38943F04003B5
:10413000A3814FF0FF30BDE8F087266165613E4402
:10414000ED1B2660A5604646464528BF46463246DA
:104150004946206800F0F7FAA3689B1BA360236818
:104160001E4426600020BDE8F08700002DE9F04FD6
:104170009DB0804603938B891C060D4616460DD5CF
:104180000B695BB9402100F047FB2860286118B932
:104190000C23C8F80030CDE040236B610023099365
:1041A00020238DF82930DFF89CB130238DF82A3098
:1041B00037463C4614F8013B1BB9B7EB060910D053
:1041C00003E0252BF9D02746F3E74B463246294634
:1041D0004046FFF771FF013000F0A780099B4B4478
:1041E00009933B78002B00F0A08000234FF0FF32B2
:1041F00004930793059206938DF853301A93012682
:10420000052221784E4800F043FA671C049B38B120
:104210004B4A801A06FA00F0184304903C46EFE738
:10422000D90644BF20228DF853201A0744BF2B2201
:104230008DF8532022782A2A03D0079A00210A20D9
:104240000BE0039A111D12680391002A10DA524202
:1042500043F00200079204900BE0274601343B78BC
:10426000303B092B03D800FB02320121F5E701B1F5
:1042700007923B782E2B1ED17B782A2B0AD1039BE9
:104280001A1D1B680392002BB8BF4FF0FF33023793
:10429000059310E000230593781C19460A2407466D
:1042A00001303A78303A092A03D804FB012101236E
:1042B000F5E703B1059103223978224800F0E8F9C7
:1042C00040B14023CBEB000003FA00F0049B1843FD
:1042D0000490013739781C488DF8281006227E1C7E
:1042E00000F0D6F988B1194B33B9039B073323F09B
:1042F00007030833039314E003AB00932A46144BDF
:1043000004A94046AFF3008007E003AB00932A46C0
:104310000F4B04A9404600F093F8B0F1FF3F8246EE
:1043200003D0099B5344099342E7AB895B0601D450
:10433000099801E04FF0FF301DB0BDE8F08F00BFDD
:10434000D64B0008DC4B0008E04B000800000000E2
:10435000B94000082DE9F04791461F460A698B686D
:10436000DDF820809342B8BF1346C9F8003091F8B9
:10437000432006460C4612B10133C9F800302368C9
:10438000990642BFD9F800300233C9F800302568D9
:1043900015F0060510D104F1190A07E00123524671
:1043A00039463046C04701301AD00135E368D9F8A4
:1043B00000209B1A9D42F1DB94F8433022680033C1
:1043C00018BF012392060FD5E1185A1C302081F83E
:1043D0004300224494F8451082F84310023303E06E
:1043E0004FF0FF30BDE8F08704F143023946304614
:1043F000C0470130F4D02268D9F80050E36802F0D9
:104400000602042A08BF5D1B2269A3680CBF25EAC7
:10441000E57500259342C4BF9B1AED184FF00009C3
:104420001A344D4509D00123224639463046C0474B
:104430000130D5D009F10109F3E70020BDE8F0878C
:104440002DE9F04317460A7E85B06E2A9846064647
:104450000C460C9B01F1430E00F0AE8011D8632A8C
:1044600022D009D8002A00F0BB80582A40F0CA8028
:1044700081F84520834955E0642A1ED0692A1CD062
:10448000C0E0732A00F0B08009D86F2A2ED0702ABD
:1044900040F0B8800A6842F020020A603EE0752AC7
:1044A00024D0782A3AD0ADE01A6801F14205111DF6
:1044B0001960136884F84230A8E021681A6811F086
:1044C000800F02D0111D196008E011F0400F02F1B9
:1044D0000401196002D0B2F9003000E01368002B2B
:1044E0003CDA2D225B4284F8432037E021681A68C9
:1044F00011F0800F02D0111D196007E011F0400F7C
:1045000002F10401196001D0138800E01368227ED3
:104510005C496F2A14BF0A2208221BE078225A49FC
:1045200084F845202268186812F0800F00F1040515
:104530001D6003D1550601D5038800E00368D0074C
:1045400044BF42F0200222601BB9226822F0200200
:1045500022601022002084F8430001E049490A2229
:104560006568A560002D08DB206820F0040020604D
:104570002BB9002D7DD175460CE0002B79D0754606
:10458000B3FBF2F002FB1033CB5C05F8013D0346B0
:104590000028F5D1082A0BD12368DA0708D523694A
:1045A00062689A42DEBF302305F8013C05F1FF3511
:1045B000C5EB0E0323612EE008681A68496910F004
:1045C000800F03D0101D1860136808E010F0400F32
:1045D00002F104001860136801D0198000E019602E
:1045E00000232361754616E01A68111D19601568CD
:1045F00062680021284600F04BF808B1401B60605B
:10460000636804E004F1420584F842200123236139
:10461000002384F84330CDF800803B4603AA2146AE
:104620003046FFF797FE013002D14FF0FF3026E011
:1046300023692A4639463046C0470130F5D0236801
:104640009B0710D5002504F1190907E001234A460C
:1046500039463046C0470130E7D00135E368039A58
:104660009B1A9D42F2DBE068039B9842B8BF184654
:1046700005E00B7884F8423004F142058AE705B082
:10468000BDE8F083E74B0008F84B0008000000008D
:1046900001F0FF01102A2BDB10F0070F08D010F8F3
:1046A000013B013A8B422DD010F0070F42B3F6D1F7
:1046B000F0B441EA012141EA014122F007047FF010
:1046C00000070023F0E80256083C85EA010586EA67
:1046D000010685FA47F5A3FA87F586FA47F6A5FAA3
:1046E00087F68EB9EED1F0BC01F0FF0102F00702AF
:1046F00032B110F8013B013A83EA010313B1F8D15A
:104700000020704701387047002D06BF354603383A
:10471000073815F0010F07D1013015F4807F02BF73
:10472000013015F4C03F0130F0BC0138704700BFC4
:1047300010B5431E0A44914204D011F8014B03F80E
:10474000014FF8E710BD884210B501EB020301D814
:10475000421E0BE09842FBD28118D21AD34204D0F9
:1047600013F8014D01F8014DF8E710BD994204D04E
:1047700011F8014B02F8014FF8E710BD38B50546B6
:10478000002946D051F8043C0C1F002BB8BFE41898
:1047900000F0D6F81F4A1368114613B9636014601D
:1047A00032E0A3420ED92268A018834204BF1868E1
:1047B0005B68636004BF121822600C6024E0A242B0
:1047C00003D813465A68002AF9D118681918A1426B
:1047D0000BD12168014458188242196014D1106825
:1047E00052685A60014419600EE002D90C232B6014
:1047F0000AE021686018824204BF10685268626053
:1048000004BF091821605C602846BDE8384000F00C
:1048100098B838BD7402002070B5CD1C25F0030592
:1048200008350C2D38BF0C25002D064601DBA942AA
:1048300002D90C23336046E000F082F8234B1C6859
:104840001A462146A1B10B685B1B0ED40B2B03D972
:104850000B60CC18CD501EE08C420DBF63684B68D6
:104860006360136018BF0C4615E00C464968E9E721
:10487000174C23681BB9304600F052F820602946D7
:10488000304600F04DF8431C18D0C41C24F003043B
:10489000A0420DD12560304600F053F804F10B0022
:1048A000231D20F00700C31A0ED05A42E25070BDFB
:1048B000211A304600F034F80130EBD10C2333607C
:1048C000304600F03EF8002070BD00BF74020020AA
:1048D00070020020F8B5074615460E4621B911466C
:1048E000BDE8F840FFF798BF1AB9FFF747FF284621
:1048F000F8BD00F027F885420ED929463846FFF763
:104900008BFF044650B131462A46FFF711FF31466E
:104910003846FFF733FF01E03046F8BD2046F8BDCA
:1049200038B5064C0023054608462360FBF7F6FD24
:10493000431C02D1236803B12B6038BD78020020EC
:104940007047704751F8040C0028BEBF091851F891
:10495000043CC01804387047537461636B2066725E
:10496000616D653A0A000000205230203D2020256C
:104970003038580A00000000205231203D20202508
:104980003038580A00000000205232203D202025F7
:104990003038580A00000000205233203D202025E6
:1049A0003038580A0000000020523132203D2025C6
:1049B0003038580A00000000204C52203D202025AD
:1049C0003038580A00000000205043203D202025A8
:1049D0003038580A0000000020505352203D202556
:1049E0003038580A000000004653522F4641523AD0
:1049F0000A0000002043465352203D202025303835
:104A0000580A00002048465352203D2020253038C7
:104A1000580A00002044465352203D2020253038BB
:104A2000580A00002041465352203D2020253038AE
:104A3000580A0000204D4D464152203D2025303877
:104A4000580A00002042464152203D20202530389F
:104A5000580A00004D6973630A000000204C522F71
:104A60004558435F52455455524E3D2025303858E5
:104A70000A0000005B486172644661756C745D0AEF
:104A8000000000005B4275734661756C745D0A003E
:104A90005B55736167654661756C745D0A00000063
:104AA00000000000000000000102030406070809DE
:104AB000B93000080200000000000000292F0008A3
:104AC000E803000019000000E1310008E8030000DD
:104AD00000000000F1300008640000001900000030
:104AE0002D3100080500000000000000000000005B
:104AF0000004024001000000080000000000000067
:104B0000000402400100000010000000000000004E
:104B1000000402400100000020000000000000002E
:104B20000000024001000000010000000000000041
:104B30000000024001000000020000000000000030
:104B4000000002400100000004000000000000001E
:104B5000000002400100000008000000000000000A
:104B600000000240010000001000000000000000F2
:104B700000000240010000002000000000000000D2
:104B800000000240010000004000000000000000A2
:104B90000000024001000000800000000000000052
:104BA00000040240010000000010030100000000AA
:104BB00000040240010000000001030100000000A9
:104BC0000004024001000000000103010000000099
:104BD000504554455200232D302B2000686C4C006A
:104BE00065666745464700303132333435363738ED
:104BF000394142434445460030313233343536374B
:094C0000383961626364656600E5
:104C0C007856341298000020000000000024F400B4
:104C1C0000E100E00038024010E000E0010205FF76
:104C2C005045544552FFFFFF0000000000000000FB
:104C3C000000000000000000000000000000000068
:104C4C000000000000000000000000000000000058
:104C5C000000000000000000000000000000000048
:104C6C000000000000000000000000000000000038
:104C7C000000000000000000000000000000000028
:104C8C00000000000000000028000020325476983C
:040000050800019559
:00000001FF
